{
  "address": "0xB1f698732AC062523Dd87fD261C917c52E1E9378",
  "abi": [
    {
      "inputs": [
        {
          "internalType": "contract IInputBox",
          "name": "_inputBox",
          "type": "address"
        }
      ],
      "stateMutability": "nonpayable",
      "type": "constructor"
    },
    {
      "inputs": [
        {
          "internalType": "address",
          "name": "target",
          "type": "address"
        }
      ],
      "name": "AddressEmptyCode",
      "type": "error"
    },
    {
      "inputs": [],
      "name": "FailedInnerCall",
      "type": "error"
    },
    {
      "inputs": [
        {
          "internalType": "bytes4",
          "name": "selector",
          "type": "bytes4"
        }
      ],
      "name": "NotPermissionCallable",
      "type": "error"
    },
    {
      "anonymous": false,
      "inputs": [
        {
          "indexed": true,
          "internalType": "address",
          "name": "dapp",
          "type": "address"
        },
        {
          "indexed": true,
          "internalType": "uint256",
          "name": "inputIndex",
          "type": "uint256"
        },
        {
          "indexed": false,
          "internalType": "address",
          "name": "sender",
          "type": "address"
        },
        {
          "indexed": false,
          "internalType": "bytes",
          "name": "input",
          "type": "bytes"
        }
      ],
      "name": "InputAdded",
      "type": "event"
    },
    {
      "inputs": [
        {
          "internalType": "address",
          "name": "_dapp",
          "type": "address"
        },
        {
          "internalType": "bytes",
          "name": "_input",
          "type": "bytes"
        }
      ],
      "name": "addInput",
      "outputs": [
        {
          "internalType": "bytes32",
          "name": "",
          "type": "bytes32"
        }
      ],
      "stateMutability": "nonpayable",
      "type": "function"
    },
    {
      "inputs": [],
      "name": "getInputBox",
      "outputs": [
        {
          "internalType": "contract IInputBox",
          "name": "",
          "type": "address"
        }
      ],
      "stateMutability": "view",
      "type": "function"
    },
    {
      "inputs": [
        {
          "internalType": "address",
          "name": "_dapp",
          "type": "address"
        },
        {
          "internalType": "uint256",
          "name": "_index",
          "type": "uint256"
        }
      ],
      "name": "getInputHash",
      "outputs": [
        {
          "internalType": "bytes32",
          "name": "",
          "type": "bytes32"
        }
      ],
      "stateMutability": "view",
      "type": "function"
    },
    {
      "inputs": [
        {
          "internalType": "address",
          "name": "_dapp",
          "type": "address"
        }
      ],
      "name": "getNumberOfInputs",
      "outputs": [
        {
          "internalType": "uint256",
          "name": "",
          "type": "uint256"
        }
      ],
      "stateMutability": "view",
      "type": "function"
    },
    {
      "inputs": [
        {
          "internalType": "bytes",
          "name": "call",
          "type": "bytes"
        }
      ],
      "name": "permissionedCall",
      "outputs": [
        {
          "internalType": "bytes",
          "name": "res",
          "type": "bytes"
        }
      ],
      "stateMutability": "payable",
      "type": "function"
    },
    {
      "inputs": [
        {
          "internalType": "bytes4",
          "name": "selector",
          "type": "bytes4"
        }
      ],
      "name": "supportsPermissionedCallSelector",
      "outputs": [
        {
          "internalType": "bool",
          "name": "",
          "type": "bool"
        }
      ],
      "stateMutability": "pure",
      "type": "function"
    }
  ],
  "transactionHash": "0x35ea4c9b7f17291b43fb33d8e4ab3ee154e8d4929438e694734f15322a851d08",
  "args": [
    "0x59b22D57D4f067708AB0c00552767405926dc768"
  ],
  "numDeployments": 1,
  "solcInputHash": "1211c60828406d2aeb2ad67382e4c948",
  "bytecode": "0x60a060405234801561001057600080fd5b5060405161101a38038061101a833981810160405281019061003291906100e3565b808073ffffffffffffffffffffffffffffffffffffffff1660808173ffffffffffffffffffffffffffffffffffffffff16815250505050610110565b600080fd5b600073ffffffffffffffffffffffffffffffffffffffff82169050919050565b600061009e82610073565b9050919050565b60006100b082610093565b9050919050565b6100c0816100a5565b81146100cb57600080fd5b50565b6000815190506100dd816100b7565b92915050565b6000602082840312156100f9576100f861006e565b5b6000610107848285016100ce565b91505092915050565b608051610eef61012b60003960006101ac0152610eef6000f3fe6080604052600436106100545760003560e01c8062aace9a146100595780631789cd63146100845780632bd1b86d146100c157806347ad697f146100f157806361a93c871461012e578063677087c91461016b575b600080fd5b34801561006557600080fd5b5061006e6101a8565b60405161007b91906107b3565b60405180910390f35b34801561009057600080fd5b506100ab60048036038101906100a6919061087b565b6101d0565b6040516100b891906108f4565b60405180910390f35b6100db60048036038101906100d6919061090f565b6102ee565b6040516100e891906109ec565b60405180910390f35b3480156100fd57600080fd5b5061011860048036038101906101139190610a66565b6103a8565b6040516101259190610aae565b60405180910390f35b34801561013a57600080fd5b5061015560048036038101906101509190610ac9565b6103f9565b6040516101629190610b0f565b60405180910390f35b34801561017757600080fd5b50610192600480360381019061018d9190610b56565b6104e9565b60405161019f91906108f4565b60405180910390f35b60007f0000000000000000000000000000000000000000000000000000000000000000905090565b6000803384846040516020016101e893929190610c1d565b60405160208183030381529060405290503073ffffffffffffffffffffffffffffffffffffffff1662aace9a6040518163ffffffff1660e01b8152600401602060405180830381865afa158015610243573d6000803e3d6000fd5b505050506040513d601f19601f820116820180604052508101906102679190610c85565b73ffffffffffffffffffffffffffffffffffffffff16631789cd6386836040518363ffffffff1660e01b81526004016102a1929190610cc1565b6020604051808303816000875af11580156102c0573d6000803e3d6000fd5b505050506040513d601f19601f820116820180604052508101906102e49190610d1d565b9150509392505050565b60606103058383906103009190610d62565b6103a8565b610352578282906103169190610d62565b6040517fd1ef47a20000000000000000000000000000000000000000000000000000000081526004016103499190610dd0565b60405180910390fd5b6103a03084848080601f016020809104026020016040519081016040528093929190818152602001838380828437600081840152601f19601f820116905080830192505050505050506105dc565b905092915050565b6000631789cd6360e01b7bffffffffffffffffffffffffffffffffffffffffffffffffffffffff1916827bffffffffffffffffffffffffffffffffffffffffffffffffffffffff1916149050919050565b60003073ffffffffffffffffffffffffffffffffffffffff1662aace9a6040518163ffffffff1660e01b8152600401602060405180830381865afa158015610445573d6000803e3d6000fd5b505050506040513d601f19601f820116820180604052508101906104699190610c85565b73ffffffffffffffffffffffffffffffffffffffff166361a93c87836040518263ffffffff1660e01b81526004016104a19190610deb565b602060405180830381865afa1580156104be573d6000803e3d6000fd5b505050506040513d601f19601f820116820180604052508101906104e29190610e1b565b9050919050565b60003073ffffffffffffffffffffffffffffffffffffffff1662aace9a6040518163ffffffff1660e01b8152600401602060405180830381865afa158015610535573d6000803e3d6000fd5b505050506040513d601f19601f820116820180604052508101906105599190610c85565b73ffffffffffffffffffffffffffffffffffffffff1663677087c984846040518363ffffffff1660e01b8152600401610593929190610e48565b602060405180830381865afa1580156105b0573d6000803e3d6000fd5b505050506040513d601f19601f820116820180604052508101906105d49190610d1d565b905092915050565b60606000808473ffffffffffffffffffffffffffffffffffffffff16846040516106069190610ea2565b600060405180830381855af49150503d8060008114610641576040519150601f19603f3d011682016040523d82523d6000602084013e610646565b606091505b5091509150610656858383610660565b9250505092915050565b60608261067557610670826106ef565b6106e7565b6000825114801561069d575060008473ffffffffffffffffffffffffffffffffffffffff163b145b156106df57836040517f9996b3150000000000000000000000000000000000000000000000000000000081526004016106d69190610deb565b60405180910390fd5b8190506106e8565b5b9392505050565b6000815111156107025780518082602001fd5b6040517f1425ea4200000000000000000000000000000000000000000000000000000000815260040160405180910390fd5b600073ffffffffffffffffffffffffffffffffffffffff82169050919050565b6000819050919050565b600061077961077461076f84610734565b610754565b610734565b9050919050565b600061078b8261075e565b9050919050565b600061079d82610780565b9050919050565b6107ad81610792565b82525050565b60006020820190506107c860008301846107a4565b92915050565b600080fd5b600080fd5b60006107e382610734565b9050919050565b6107f3816107d8565b81146107fe57600080fd5b50565b600081359050610810816107ea565b92915050565b600080fd5b600080fd5b600080fd5b60008083601f84011261083b5761083a610816565b5b8235905067ffffffffffffffff8111156108585761085761081b565b5b60208301915083600182028301111561087457610873610820565b5b9250929050565b600080600060408486031215610894576108936107ce565b5b60006108a286828701610801565b935050602084013567ffffffffffffffff8111156108c3576108c26107d3565b5b6108cf86828701610825565b92509250509250925092565b6000819050919050565b6108ee816108db565b82525050565b600060208201905061090960008301846108e5565b92915050565b60008060208385031215610926576109256107ce565b5b600083013567ffffffffffffffff811115610944576109436107d3565b5b61095085828601610825565b92509250509250929050565b600081519050919050565b600082825260208201905092915050565b60005b8381101561099657808201518184015260208101905061097b565b60008484015250505050565b6000601f19601f8301169050919050565b60006109be8261095c565b6109c88185610967565b93506109d8818560208601610978565b6109e1816109a2565b840191505092915050565b60006020820190508181036000830152610a0681846109b3565b905092915050565b60007fffffffff0000000000000000000000000000000000000000000000000000000082169050919050565b610a4381610a0e565b8114610a4e57600080fd5b50565b600081359050610a6081610a3a565b92915050565b600060208284031215610a7c57610a7b6107ce565b5b6000610a8a84828501610a51565b91505092915050565b60008115159050919050565b610aa881610a93565b82525050565b6000602082019050610ac36000830184610a9f565b92915050565b600060208284031215610adf57610ade6107ce565b5b6000610aed84828501610801565b91505092915050565b6000819050919050565b610b0981610af6565b82525050565b6000602082019050610b246000830184610b00565b92915050565b610b3381610af6565b8114610b3e57600080fd5b50565b600081359050610b5081610b2a565b92915050565b60008060408385031215610b6d57610b6c6107ce565b5b6000610b7b85828601610801565b9250506020610b8c85828601610b41565b9150509250929050565b60008160601b9050919050565b6000610bae82610b96565b9050919050565b6000610bc082610ba3565b9050919050565b610bd8610bd3826107d8565b610bb5565b82525050565b600081905092915050565b82818337600083830152505050565b6000610c048385610bde565b9350610c11838584610be9565b82840190509392505050565b6000610c298286610bc7565b601482019150610c3a828486610bf8565b9150819050949350505050565b6000610c52826107d8565b9050919050565b610c6281610c47565b8114610c6d57600080fd5b50565b600081519050610c7f81610c59565b92915050565b600060208284031215610c9b57610c9a6107ce565b5b6000610ca984828501610c70565b91505092915050565b610cbb816107d8565b82525050565b6000604082019050610cd66000830185610cb2565b8181036020830152610ce881846109b3565b90509392505050565b610cfa816108db565b8114610d0557600080fd5b50565b600081519050610d1781610cf1565b92915050565b600060208284031215610d3357610d326107ce565b5b6000610d4184828501610d08565b91505092915050565b600082905092915050565b600082821b905092915050565b6000610d6e8383610d4a565b82610d798135610a0e565b92506004821015610db957610db47fffffffff0000000000000000000000000000000000000000000000000000000083600403600802610d55565b831692505b505092915050565b610dca81610a0e565b82525050565b6000602082019050610de56000830184610dc1565b92915050565b6000602082019050610e006000830184610cb2565b92915050565b600081519050610e1581610b2a565b92915050565b600060208284031215610e3157610e306107ce565b5b6000610e3f84828501610e06565b91505092915050565b6000604082019050610e5d6000830185610cb2565b610e6a6020830184610b00565b9392505050565b6000610e7c8261095c565b610e868185610bde565b9350610e96818560208601610978565b80840191505092915050565b6000610eae8284610e71565b91508190509291505056fea2646970667358221220ba316b05b39d896420fa9a348104a51a14038a40f3ad8e1630e2711718040a3e64736f6c634300081a0033",
  "devdoc": {
    "errors": {
      "AddressEmptyCode(address)": [
        {
          "details": "There's no code at `target` (it is not a contract)."
        }
      ],
      "FailedInnerCall()": [
        {
          "details": "A call to an address target failed. The target may have reverted."
        }
      ],
      "NotPermissionCallable(bytes4)": [
        {
          "params": {
            "selector": "The function that was attempting to go through permissionedCall."
          }
        }
      ]
    },
    "events": {
      "InputAdded(address,uint256,address,bytes)": {
        "details": "MUST be triggered on a successful call to `addInput`.",
        "params": {
          "dapp": "The address of the DApp",
          "input": "The contents of the input",
          "inputIndex": "The index of the input in the input box",
          "sender": "The address that sent the input"
        }
      }
    },
    "kind": "dev",
    "methods": {
      "addInput(address,bytes)": {
        "details": "MUST fire an `InputAdded` event accordingly.      Input larger than machine limit will raise `InputSizeExceedsLimit` error.",
        "params": {
          "_dapp": "The address of the DApp",
          "_input": "The contents of the input"
        },
        "returns": {
          "_0": "The hash of the input plus some extra metadata"
        }
      },
      "getInputBox()": {
        "returns": {
          "_0": "The input box"
        }
      },
      "getInputHash(address,uint256)": {
        "details": "`_index` MUST be in the interval `[0,n)` where `n` is the number of      inputs in the DApp's input box. See the `getNumberOfInputs` function.",
        "params": {
          "_dapp": "The address of the DApp",
          "_index": "The index of the input in the DApp's input box"
        },
        "returns": {
          "_0": "The hash of the input at the provided index in the DApp's input box"
        }
      },
      "getNumberOfInputs(address)": {
        "params": {
          "_dapp": "The address of the DApp"
        },
        "returns": {
          "_0": "Number of inputs in the DApp's input box"
        }
      },
      "permissionedCall(bytes)": {
        "details": "Call data exactly matches valid selector+arguments on this contract.Call data matching required because this performs a self-delegatecall.",
        "params": {
          "call": "Call data exactly matching valid selector+arguments on this contract."
        },
        "returns": {
          "res": "data returned from the inner self-delegatecall."
        }
      },
      "supportsPermissionedCallSelector(bytes4)": {
        "params": {
          "selector": "the specific function to check support for."
        },
        "returns": {
          "_0": "indicator if the selector is supported."
        }
      }
    },
    "version": 1
  },
  "userdoc": {
    "errors": {
      "NotPermissionCallable(bytes4)": [
        {
          "notice": "Call not enabled through permissionedCall and smart wallet permissions systems."
        }
      ]
    },
    "events": {
      "InputAdded(address,uint256,address,bytes)": {
        "notice": "Emitted when an input is added to a DApp's input box."
      }
    },
    "kind": "user",
    "methods": {
      "addInput(address,bytes)": {
        "notice": "Add an input to a DApp's input box."
      },
      "getInputBox()": {
        "notice": "Get the input box used by this input relay."
      },
      "getInputHash(address,uint256)": {
        "notice": "Get the hash of an input in a DApp's input box."
      },
      "getNumberOfInputs(address)": {
        "notice": "Get the number of inputs in a DApp's input box."
      },
      "permissionedCall(bytes)": {
        "notice": "Wrap a call to the contract with a new selector."
      },
      "supportsPermissionedCallSelector(bytes4)": {
        "notice": "Determine if a function selector is allowed via permissionedCall on this contract."
      }
    },
    "version": 1
  },
  "storageLayout": {
    "storage": [],
    "types": null
  }
}